{
  "contractName": "ZToken",
  "abi": [
    {
      "inputs": [],
      "payable": false,
      "stateMutability": "nonpayable",
      "type": "constructor"
    },
    {
      "constant": true,
      "inputs": [],
      "name": "totalSupply",
      "outputs": [
        {
          "internalType": "uint256",
          "name": "",
          "type": "uint256"
        }
      ],
      "payable": false,
      "stateMutability": "view",
      "type": "function"
    }
  ],
  "bytecode": "0x6080604052348015600f57600080fd5b50620186a06000819055506084806100286000396000f3fe6080604052348015600f57600080fd5b506004361060285760003560e01c806318160ddd14602d575b600080fd5b60336049565b6040518082815260200191505060405180910390f35b6000548156fea265627a7a7231582008139e4d87692264005f797ec54445aa17ba1527bc63075f0a75b7de245b811964736f6c63430005100032",
  "source": "pragma solidity >=0.4.2;\r\n\r\ncontract ZToken {\r\n    // constructor\r\n    // set the total number of tokens\r\n    // read the total number of token\r\n    uint256 public totalSupply;\r\n\r\n    constructor() public {\r\n        totalSupply = 100000;\r\n    }\r\n}\r\n",
  "sourcePath": "C:\\Users\\HP\\zcoin\\contracts\\ZToken.sol",
  "compiler": {
    "name": "solc",
    "version": "0.5.16+commit.9c3226ce.Emscripten.clang"
  },
  "schemaVersion": "3.4.4",
  "updatedAt": "2022-01-18T13:49:31.711Z",
  "networkType": "ethereum",
  "devdoc": {
    "methods": {}
  },
  "userdoc": {
    "methods": {}
  }
}